:100000000C9435000C9402010C942F010C945D00AB
:100010000C945D000C945D000C945D000C945D00EC
:100020000C945D000C945D000C945D000C945D00DC
:100030000C945D000C945D000C945D000C945D00CC
:100040000C945C010C945D000C9477020C945D00A0
:100050000C945D000C945D000C945D000C945D00AC
:100060000C945D000C945D00AD0011241FBECFEF19
:10007000D4E0DEBFCDBF11E0A0E0B1E0E0E4F6E007
:1000800002C005900D92A031B107D9F712E0A0E1AE
:10009000B1E001C01D92A037B107E1F710E0CAE658
:1000A000D0E004C02297FE010E941A03C836D1078F
:1000B000C9F70E94A6000C941E030C9400000F9335
:1000C0001F93CF93DF938AED91E00E94BB008823BA
:1000D00091F00091D8011091D9010F5F1F4F10933B
:1000E000D9010093D8018AED91E00E94B800005F29
:1000F0001E4FF8018083C0E0D0E00FC060E071E0E7
:100100008AED91E00E94C300FE01E05FFE4F608136
:100110008AED91E00E94F20021968091D8019091A1
:10012000D9018C179D0754F7DF91CF911F910F9143
:1001300008954091070150910801662757FD609589
:10014000762F8AED91E00E94BE0008950E94CC01B6
:100150000E9499000E945F00FDCF8DE091E0909396
:10016000DB018093DA010895862F0E943F020895F3
:100170000E94580208950E9447020895CB01BA01D7
:100180000E94060208950F931F93CF93DF938C0173
:10019000EB0109C02196D801ED91FC910190F0810D
:1001A000E02DC801099568816623A1F7DF91CF9101
:1001B0001F910F9108950F931F938C01DC01ED9116
:1001C000FC910190F081E02D6DE00995D801ED9151
:1001D000FC910190F081E02D6AE0C80109951F9122
:1001E0000F9108950F931F938C01DC01ED91FC9109
:1001F0000190F081E02D0995C8010E94DB001F915C
:100200000F9108951F920F920FB60F9211242F9302
:100210003F934F935F936F937F938F939F93AF938E
:10022000BF93EF93FF938091DC019091DD01892BC7
:1002300029F0E091DC01F091DD010995FF91EF914A
:10024000BF91AF919F918F917F916F915F914F91EE
:100250003F912F910F900FBE0F901F9018951F92F6
:100260000F920FB60F9211242F933F934F935F93EA
:100270006F937F938F939F93AF93BF93EF93FF936E
:100280008091DE019091DF01892B29F0E091DE0160
:10029000F091DF010995FF91EF91BF91AF919F918F
:1002A0008F917F916F915F914F913F912F910F901F
:1002B0000FBE0F901F9018951F920F920FB60F92BE
:1002C00011242F938F939F93AF93BF938091E0015D
:1002D0009091E101A091E201B091E3010196A11D8D
:1002E000B11D8093E0019093E101A093E201B093EE
:1002F000E3018091E4019091E501A091E601B091C4
:10030000E7018050904CAF4FBF4F8093E401909332
:10031000E501A093E601B093E70127C08091E401D5
:100320009091E501A091E601B091E70180589E43CC
:10033000A040B0408093E4019093E501A093E601D2
:10034000B093E7018091E8019091E901A091EA0161
:10035000B091EB010196A11DB11D8093E80190932E
:10036000E901A093EA01B093EB018091E40190913F
:10037000E501A091E601B091E70181589E43A040BC
:10038000B04060F6BF91AF919F918F912F910F90E8
:100390000FBE0F901F901895789484B5826084BD2D
:1003A00084B5816084BD85B5826085BD85B5816079
:1003B00085BDEEE6F0E0808181608083E1E8F0E0D9
:1003C000808182608083808181608083E0E8F0E0CA
:1003D000808181608083E1EBF0E0808184608083B4
:1003E000E0EBF0E0808181608083EAE7F0E08081EB
:1003F000846080838081826080838081816080834B
:100400008081806880831092C1000895EF92FF92EE
:100410000F931F937B018C0122E030E040E050E01D
:100420000E94E902205C3D4B404F5F4FCA01B90179
:10043000A80197010E94E902C901DA010197A10907
:10044000B109292F3A2F4B2F552747FD5A95019671
:10045000A11DB11D2093C50081508093C400E1EC23
:10046000F0E08081806180838081886080838081EA
:10047000806880831F910F91FF90EF900895982FCF
:100480008091C00085FFFCCF9093C60008958091B5
:10049000EC019091ED0180589F4F2091EE01309139
:1004A000EF01821B930B60E870E00E94B402089594
:1004B0004091EE015091EF018091EC019091ED019E
:1004C0008417950719F42FEF3FEF0FC0FA01E051A1
:1004D000FE4F2081CA01019660E870E00E94B402DC
:1004E0009093EF018093EE0130E0C90108951F92CF
:1004F0000F920FB60F9211242F933F934F935F9358
:100500006F937F938F939F93AF93BF93EF93FF93DB
:100510004091C600E091EC01F091ED01CF01019610
:1005200060E870E00E94B4029C018091EE0190911D
:10053000EF012817390739F0E051FE4F408330931F
:10054000ED012093EC01FF91EF91BF91AF919F914D
:100550008F917F916F915F914F913F912F910F906C
:100560000FBE0F901F90189597FB092E07260AD0F3
:1005700077FD04D049D006D000201AF4709561951B
:100580007F4F0895F6F7909581959F4F0895A1E2CA
:100590001A2EAA1BBB1BFD010DC0AA1FBB1FEE1FFD
:1005A000FF1FA217B307E407F50720F0A21BB30B48
:1005B000E40BF50B661F771F881F991F1A9469F7C4
:1005C00060957095809590959B01AC01BD01CF0120
:1005D000089597FB092E05260ED057FD04D0D7DFCE
:1005E0000AD0001C38F450954095309521953F4F26
:1005F0004F4F5F4F0895F6F79095809570956195F0
:100600007F4F8F4F9F4F0895AA1BBB1B51E107C01F
:10061000AA1FBB1FA617B70710F0A61BB70B881F92
:10062000991F5A95A9F780959095BC01CD01089521
:10063000EE0FFF1F0590F491E02D0994F894FFCF81
:10064000726561643A2000802500000000B400005B
:00000001FF
