:100000000C945B000C9453010C9480010C948300BD
:100010000C9483000C9483000C9483000C94830054
:100020000C9483000C9483000C9483000C94830044
:100030000C9483000C9483000C9483000C94830034
:100040000C94AD010C9483000C9421030C94830058
:100050000C9483000C9483000C9483000C94830014
:100060000C9483000C948300000024272A000025B0
:10007000282B000023262904040404040404040299
:100080000202020202030303030303010204081035
:100090002040800102040810200102040810200002
:1000A0000000070002010000030406000000000039
:1000B000000000003D0111241FBECFEFD4E0DEBFE1
:1000C000CDBF11E0A0E0B1E0E2EDF7E002C00590A5
:1000D0000D92AA30B107D9F714E0AAE0B1E001C04F
:1000E0001D92A23CB107E1F710E0C6EBD0E004C0DE
:1000F0002297FE010E94E303C43BD107C9F70E9487
:1001000036010C94E7030C9400006F927F928F925B
:100110009F92AF92BF92CF92DF92EF92FF920F9396
:100120001F93CF93DF93EC01882777FD8095982F5D
:1001300028EE33E040E050E00E945E033B014C01BA
:10014000CE01880F991F5C01CC24B7FCC094DC2C35
:10015000EE24FF24870114C061E0809102010E9417
:100160006502CE010E941D0260E0809102010E94A2
:100170006502CE010E941D02EA0CFB1C0C1D1D1D18
:10018000E614F704080519053CF3DF91CF911F91A0
:100190000F91FF90EF90DF90CF90BF90AF909F9026
:1001A0008F907F906F900895CF93DF93C6EDD1E04D
:1001B0006881772767FD709580E794E00E9485004D
:1001C000239684E0CE32D80799F7DF91CF91089536
:1001D0008CE294E00E94480108950F931F9300E081
:1001E00011C00091D2011091D3010F5F1F4F1093E6
:1001F000D3010093D2010E94E800065F1E4FF80170
:10020000808301E08CE294E00E944B01882349F74F
:100210000023C9F0AAE0B1E0E4EDF1E020E031E034
:1002200093E08C91813019F420839183828311961D
:10023000339681E0A23DB807A1F70E94D400109246
:10024000D3011092D2011F910F91089540E855E219
:1002500060E070E08CE294E00E944E01E4EDF1E099
:10026000119284E0EC32F807D9F708950E942B022E
:100270000E9426010E94ED00FDCF88E091E090935E
:100280002D0480932C040895862F0E94E90208957E
:100290000E94020308950E94F1020895CB01BA0161
:1002A0000E94B00208951F920F920FB60F92112470
:1002B0002F933F934F935F936F937F938F939F936E
:1002C000AF93BF93EF93FF9380912E0490912F04EF
:1002D000892B29F0E0912E04F0912F040995FF91CC
:1002E000EF91BF91AF919F918F917F916F915F91AE
:1002F0004F913F912F910F900FBE0F901F90189527
:100300001F920F920FB60F9211242F933F934F938A
:100310005F936F937F938F939F93AF93BF93EF936D
:10032000FF938091300490913104892B29F0E09162
:100330003004F09131040995FF91EF91BF91AF9195
:100340009F918F917F916F915F914F913F912F91ED
:100350000F900FBE0F901F9018951F920F920FB61F
:100360000F9211242F938F939F93AF93BF938091FC
:10037000320490913304A0913404B0913504019675
:10038000A11DB11D8093320490933304A0933404D3
:10039000B09335048091360490913704A0913804CD
:1003A000B09139048050904CAF4FBF4F80933604CA
:1003B00090933704A0933804B093390427C08091F8
:1003C000360490913704A0913804B09139048058D4
:1003D0009E43A040B0408093360490933704A0938E
:1003E0003804B093390480913A0490913B04A09171
:1003F0003C04B0913D040196A11DB11D80933A04C7
:1004000090933B04A0933C04B0933D048091360448
:1004100090913704A0913804B091390481589E43DB
:10042000A040B04060F6BF91AF919F918F912F9106
:100430000F900FBE0F901F901895019759F0FC0177
:10044000EE0FFF1FEE0FFF1F32978FB7F894319713
:10045000F1F78FBF0895789484B5826084BD84B528
:10046000816084BD85B5826085BD85B5816085BDAF
:10047000EEE6F0E0808181608083E1E8F0E0808159
:1004800082608083808181608083E0E8F0E0808109
:1004900081608083E1EBF0E0808184608083E0EB29
:1004A000F0E0808181608083EAE7F0E08081846011
:1004B000808380818260808380818160808380816D
:1004C000806880831092C1000895482F50E0CA01CF
:1004D00081569F4FFC012491CA0185579F4FFC0113
:1004E000949149585F4FFA0134913323C1F122238B
:1004F00031F1233021F4809180008F7705C02430C2
:1005000031F4809180008F7D8093800018C021306D
:1005100019F484B58F7704C0223021F484B58F7D1F
:1005200084BD0DC0263021F48091B0008F7705C0C6
:10053000273029F48091B0008F7D8093B000E32FA5
:10054000F0E0E359FF4FE491F0E0662329F4808165
:1005500090958923808308958081892B80830895D5
:10056000EF92FF920F931F937B018C0122E030E00A
:1005700040E050E00E94B203205C3D4B404F5F4F93
:10058000CA01B901A80197010E94B203C901DA01A9
:100590000197A109B109292F3A2F4B2F552747FD64
:1005A0005A950196A11DB11D2093C50081508093DD
:1005B000C400E1ECF0E0808180618083808188600C
:1005C00080838081806880831F910F91FF90EF90DE
:1005D0000895982F8091C00085FFFCCF9093C600AE
:1005E000089580913E0490913F0480589F4F209140
:1005F000400430914104821B930B60E870E00E943C
:100600007D030895409140045091410480913E043F
:1006100090913F048417950719F42FEF3FEF0FC017
:10062000FA01EE5BFB4F2081CA01019660E870E0A1
:100630000E947D03909341048093400430E0C901FF
:1006400008951F920F920FB60F9211242F933F938C
:100650004F935F936F937F938F939F93AF93BF93CA
:10066000EF93FF934091C600E0913E04F0913F0468
:10067000CF01019660E870E00E947D039C018091AB
:100680004004909141042817390739F0EE5BFB4F85
:10069000408330933F0420933E04FF91EF91BF913C
:1006A000AF919F918F917F916F915F914F913F910A
:1006B0002F910F900FBE0F901F901895629FD00141
:1006C000739FF001829FE00DF11D649FE00DF11D0D
:1006D000929FF00D839FF00D749FF00D659FF00DBC
:1006E0009927729FB00DE11DF91F639FB00DE11DA9
:1006F000F91FBD01CF011124089597FB092E07268C
:100700000AD077FD04D049D006D000201AF47095A5
:1007100061957F4F0895F6F7909581959F4F0895C5
:10072000A1E21A2EAA1BBB1BFD010DC0AA1FBB1FF5
:10073000EE1FFF1FA217B307E407F50720F0A21B67
:10074000B30BE40BF50B661F771F881F991F1A94D4
:1007500069F760957095809590959B01AC01BD01FE
:10076000CF01089597FB092E05260ED057FD04D022
:10077000D7DF0AD0001C38F450954095309521956C
:100780003F4F4F4F5F4F0895F6F7909580957095C6
:1007900061957F4F8F4F9F4F0895AA1BBB1B51E15F
:1007A00007C0AA1FBB1FA617B70710F0A61BB70BE1
:1007B000881F991F5A95A9F780959095BC01CD0186
:1007C0000895EE0FFF1F0590F491E02D0994F89421
:0207D000FFCF59
:0A07D20061000D000000000044016A
:00000001FF
